{
  "address": "0x355485d880aA069517BdE82098761A9BF407D250",
  "abi": [
    {
      "inputs": [
        {
          "internalType": "address",
          "name": "exampleExternalContractAddress",
          "type": "address"
        }
      ],
      "stateMutability": "nonpayable",
      "type": "constructor"
    },
    {
      "anonymous": false,
      "inputs": [
        {
          "indexed": false,
          "internalType": "address",
          "name": "",
          "type": "address"
        },
        {
          "indexed": false,
          "internalType": "uint256",
          "name": "",
          "type": "uint256"
        }
      ],
      "name": "Stake",
      "type": "event"
    },
    {
      "inputs": [
        {
          "internalType": "address",
          "name": "",
          "type": "address"
        }
      ],
      "name": "balances",
      "outputs": [
        {
          "internalType": "uint256",
          "name": "",
          "type": "uint256"
        }
      ],
      "stateMutability": "view",
      "type": "function"
    },
    {
      "inputs": [],
      "name": "deadline",
      "outputs": [
        {
          "internalType": "uint256",
          "name": "",
          "type": "uint256"
        }
      ],
      "stateMutability": "view",
      "type": "function"
    },
    {
      "inputs": [],
      "name": "exampleExternalContract",
      "outputs": [
        {
          "internalType": "contract ExampleExternalContract",
          "name": "",
          "type": "address"
        }
      ],
      "stateMutability": "view",
      "type": "function"
    },
    {
      "inputs": [],
      "name": "execute",
      "outputs": [],
      "stateMutability": "nonpayable",
      "type": "function"
    },
    {
      "inputs": [],
      "name": "executionDone",
      "outputs": [
        {
          "internalType": "bool",
          "name": "",
          "type": "bool"
        }
      ],
      "stateMutability": "view",
      "type": "function"
    },
    {
      "inputs": [],
      "name": "openForWithdraw",
      "outputs": [
        {
          "internalType": "bool",
          "name": "",
          "type": "bool"
        }
      ],
      "stateMutability": "view",
      "type": "function"
    },
    {
      "inputs": [],
      "name": "stake",
      "outputs": [],
      "stateMutability": "payable",
      "type": "function"
    },
    {
      "inputs": [],
      "name": "threshold",
      "outputs": [
        {
          "internalType": "uint256",
          "name": "",
          "type": "uint256"
        }
      ],
      "stateMutability": "view",
      "type": "function"
    },
    {
      "inputs": [],
      "name": "timeLeft",
      "outputs": [
        {
          "internalType": "uint256",
          "name": "",
          "type": "uint256"
        }
      ],
      "stateMutability": "view",
      "type": "function"
    },
    {
      "inputs": [],
      "name": "withdraw",
      "outputs": [],
      "stateMutability": "nonpayable",
      "type": "function"
    },
    {
      "stateMutability": "payable",
      "type": "receive"
    }
  ],
  "transactionHash": "0xf4392e206c2b26088c9bf0ffcf6c1fa74825241dc912fb736f7294f7889bfffe",
  "args": [
    "0x28F1F072aE40fefEDc93b03fD276F8DF91fb33F4"
  ],
  "numDeployments": 1,
  "solcInputHash": "694fc171e38c8e97887e873f3d83e2a5",
  "bytecode": "0x6080604052610011426203f48061009d565b6002556003805461ffff1916905534801561002b57600080fd5b506040516107d13803806107d183398101604081905261004a9161006f565b600080546001600160a01b0319166001600160a01b03929092169190911790556100c1565b600060208284031215610080578081fd5b81516001600160a01b0381168114610096578182fd5b9392505050565b600082198211156100bc57634e487b7160e01b81526011600452602481fd5b500190565b610701806100d06000396000f3fe6080604052600436106100955760003560e01c80633ccfd60b116100595780633ccfd60b1461014b57806342cde4e814610160578063614619541461017c5780639876a643146101915780639f75f227146101ab57600080fd5b80631300a6d1146100a957806327e235e3146100d157806329dcb0cf146100fe57806331a19770146101145780633a4b66f11461014357600080fd5b366100a4576100a26101e3565b005b600080fd5b3480156100b557600080fd5b506100be61036f565b6040519081526020015b60405180910390f35b3480156100dd57600080fd5b506100be6100ec3660046105ee565b60016020526000908152604090205481565b34801561010a57600080fd5b506100be60025481565b34801561012057600080fd5b5060035461013390610100900460ff1681565b60405190151581526020016100c8565b6100a26101e3565b34801561015757600080fd5b506100a2610393565b34801561016c57600080fd5b506100be6702c68af0bb14000081565b34801561018857600080fd5b506100a26104b3565b34801561019d57600080fd5b506003546101339060ff1681565b3480156101b757600080fd5b506000546101cb906001600160a01b031681565b6040516001600160a01b0390911681526020016100c8565b60025442106102395760405162461bcd60e51b815260206004820152601e60248201527f456c20706c617a6f2070617261207374616b652068612070617361646f2e000060448201526064015b60405180910390fd5b600354610100900460ff16156102c15760405162461bcd60e51b815260206004820152604160248201527f4e6f2073652070756564656e207265616c697a6172206d6173207374616b657360448201527f206465737075657320646520656a65637574617220656c20636f6e747261746f6064820152601760f91b608482015260a401610230565b600034116103115760405162461bcd60e51b815260206004820152601760248201527f4465626520656e7669617220616c676f206465204574680000000000000000006044820152606401610230565b3360009081526001602052604081208054349290610330908490610686565b9091555050604080513381523460208201527febedb8b3c678666e7f36970bc8f57abf6d8fa2e828c0da91ea5b75bf68ed101a910160405180910390a1565b600060025442106103805750600090565b4260025461038e919061069e565b905090565b600354610100900460ff16156103bb5760405162461bcd60e51b81526004016102309061061c565b60035460ff166104175760405162461bcd60e51b815260206004820152602160248201527f4c6f732072657469726f73206e6f20657374616e20686162696c697461646f736044820152601760f91b6064820152608401610230565b33600090815260016020526040902054806104745760405162461bcd60e51b815260206004820152601e60248201527f4e6f207469656e657320666f6e646f73207061726120726574697261722e00006044820152606401610230565b336000818152600160205260408082208290555183156108fc0291849190818181858888f193505050501580156104af573d6000803e3d6000fd5b5050565b600354610100900460ff16156104db5760405162461bcd60e51b81526004016102309061061c565b6702c68af0bb14000047106105665760008054906101000a90046001600160a01b03166001600160a01b031663522e1177476040518263ffffffff1660e01b81526004016000604051808303818588803b15801561053857600080fd5b505af115801561054c573d6000803e3d6000fd5b50506003805461ff001916610100179055506105ec915050565b600254421061057e576003805460ff19166001179055565b60405162461bcd60e51b815260206004820152603c60248201527f456c20756d6272616c206e6f20736520686120616c63616e7a61646f2079206560448201527f6c20646561646c696e652061756e206e6f2068612070617361646f2e000000006064820152608401610230565b565b6000602082840312156105ff578081fd5b81356001600160a01b0381168114610615578182fd5b9392505050565b60208082526044908201527f4c6f7320666f6e646f732079612068616e207369646f20656e766961646f732c60408201527f206e6f2073652070756564656e207265616c697a6172206d617320616363696f6060820152633732b99760e11b608082015260a00190565b60008219821115610699576106996106b5565b500190565b6000828210156106b0576106b06106b5565b500390565b634e487b7160e01b600052601160045260246000fdfea2646970667358221220cccc1b65c1efa55478b337c72c8df10ab241aa32528e0418d0265a1fa21a3b5964736f6c63430008040033",
  "devdoc": {
    "kind": "dev",
    "methods": {},
    "version": 1
  },
  "userdoc": {
    "kind": "user",
    "methods": {},
    "version": 1
  },
  "storageLayout": {
    "storage": [
      {
        "astId": 19,
        "contract": "contracts/Staker.sol:Staker",
        "label": "exampleExternalContract",
        "offset": 0,
        "slot": "0",
        "type": "t_contract(ExampleExternalContract)12"
      },
      {
        "astId": 35,
        "contract": "contracts/Staker.sol:Staker",
        "label": "balances",
        "offset": 0,
        "slot": "1",
        "type": "t_mapping(t_address,t_uint256)"
      },
      {
        "astId": 44,
        "contract": "contracts/Staker.sol:Staker",
        "label": "deadline",
        "offset": 0,
        "slot": "2",
        "type": "t_uint256"
      },
      {
        "astId": 47,
        "contract": "contracts/Staker.sol:Staker",
        "label": "openForWithdraw",
        "offset": 0,
        "slot": "3",
        "type": "t_bool"
      },
      {
        "astId": 50,
        "contract": "contracts/Staker.sol:Staker",
        "label": "executionDone",
        "offset": 1,
        "slot": "3",
        "type": "t_bool"
      }
    ],
    "types": {
      "t_address": {
        "encoding": "inplace",
        "label": "address",
        "numberOfBytes": "20"
      },
      "t_bool": {
        "encoding": "inplace",
        "label": "bool",
        "numberOfBytes": "1"
      },
      "t_contract(ExampleExternalContract)12": {
        "encoding": "inplace",
        "label": "contract ExampleExternalContract",
        "numberOfBytes": "20"
      },
      "t_mapping(t_address,t_uint256)": {
        "encoding": "mapping",
        "key": "t_address",
        "label": "mapping(address => uint256)",
        "numberOfBytes": "32",
        "value": "t_uint256"
      },
      "t_uint256": {
        "encoding": "inplace",
        "label": "uint256",
        "numberOfBytes": "32"
      }
    }
  }
}